:020000040800F2
:1000000000500020B50B0008FD0B0008810200081D
:10001000870200088D02000893020008000000001B
:10002000000000000000000000000000FD0B0008C0
:10003000FD0B000800000000FD0B00087102000825
:10004000FD0B0008FD0B0008FD0B0008FD0B000870
:10005000FD0B0008FD0B0008FD0B0008FD0B000860
:10006000FD0B0008FD0B0008FD0B0008FD0B000850
:10007000FD0B0008FD0B0008FD0B0008FD0B000840
:10008000FD0B0008FD0B0008FD0B0008FD0B000830
:10009000FD0B0008FD0B0008FD0B0008FD0B000820
:1000A000FD0B0008FD0B0008FD0B0008FD0B000810
:1000B000FD0B0008FD0B0008FD0B0008FD0B000800
:1000C000FD0B0008FD0B0008FD0B0008FD0B0008F0
:1000D000FD0B0008490200085D020008FD0B000846
:1000E000FD0B0008FD0B0008FD0B000800000000E0
:1000F0000000000000000000000000000000000000
:04010000FD0B0008EB
:100104006C617A617275732D676433322D72733248
:1001140033322D312E312E302047443332463130A4
:1001240033433854362048534531364D487A206895
:100134006F73743D333834303055206C6F676765A6
:0D014400723D33383430305520384E3100D4
:1001540072B600BFFDE70000F0B50568044615F06F
:100164002F0F0F46164685B01BD04368A90705F02C
:10017400010048BF40F002006A0748BF40F0040095
:10018400290748BF40F00800009031461048DBB210
:10019400C5F3401200F058F918B1FB6843F080032E
:1001A400FB602A060CD5E3681B0609D531460848CE
:1001B4000DF10F0200F09BF920B19DF80F30636040
:1001C40005B0F0BDE36823F08003E360F8E700BF07
:1001D4000800002013B5044600F0FCFB20464FF451
:1001E400164100F037FC2046002100F063FC204655
:1001F400002100F067FC2046002100F053FC20465B
:10020400002100F078FC2046002100F07EFC20460E
:10021400042100F06AFC0821204600F060FC20461E
:1002240000F058FC2368019363680193019B6369A0
:1002340043F001036361E36843F02003E36002B029
:1002440010BD0000002202490248FFF785BF00BF2D
:100254000044004000380140012202490248FFF7EF
:100264007BBF00BF0038014000440040024A1368CD
:1002740001331360704700BF0400002008B5FFF786
:1002840067FF08B5FFF764FF08B5FFF761FF08B51E
:10029400FFF75EFF70B5624D00F0E2F92E68614B26
:1002A4009E420AD1032000F09FFAB042044604D1D2
:1002B400022000F099FAA04201D0FFF749FF4FF461
:1002C400C06000F01BFA40F2026000F017FA40F23E
:1002D400036000F013FA0021042000F04BFB00211E
:1002E400082000F047FB02214F4800F040FB0421A6
:1002F4004D4800F03AFB0623022210214A4800F040
:10030400E1FA1221494800F032FB122302221021A3
:10031400464800F0D7FA212302220421434800F082
:10032400D1FA0123022204213F4800F0CBFA4FF412
:1003340001713E4800F019FB4FF4017301221021B2
:100344003A4800F0BFFA4FF481630222042137488F
:1003540000F0B8FA40F20E6000F0D0F940F21170EB
:1003640000F0CCF93248FFF735FF3248FFF732FF8F
:100374004FF40173012218212C4800F0A3FA06213E
:10038400294800F0F2FA2C4A2C4BD16821F4E061A0
:100394000904090C0B431021D360294B83F825135E
:1003A40083F8261320215960402159604FF47A7153
:1003B4002B68B3FBF1F3013BB3F1807FBFF47DAF56
:1003C4004FF0E02100204B61F02382F82330886154
:1003D400072008614FF4106082F8233000F002FA1D
:1003E4004FF4106000F0B6F901287FF466AF0421E1
:1003F4004FF4FA6000F0B0FB01287FF45EAF114CBB
:1004040000F0A2FB00F098FB226823689B1AB3F566
:10041400FA7F02D300F098FB226830BFF5E700BFF3
:10042400000000200024F400000C014000080140FA
:10043400003801400044004000ED00E00003FA05EC
:1004440000E100E004000020F0B504461046059ADF
:10045400D50706D541F2100704EB4115EE590136D4
:10046400EE51970706D541F2140704EB4115EE59F6
:100474000136EE51560706D541F2180704EB411533
:10048400EE590136EE51150706D541F21C0704EB6F
:100494004115EE590136EE5170B141F2080704EBF3
:1004A4004115EE59520706F10106EE5106D005F545
:1004B40080552B6A01332B620020F0BD40F6040204
:1004C40081F0010102FB0144B4F80218B4F8006899
:1004D4004A1CC2F30A02964205D105F580556B6A9F
:1004E40001336B62E8E76354A4F80228E5E740F6B9
:1004F400040303FB010330B5B3F80048B3F8025812
:10050400A54211D01C5D00EB41101470B3F8002813
:100514000132C2F30A02A3F8002841F20C02835804
:1005240001338350012030BD0020FCE77047704741
:10053400484B84B01A6842F001021A601A689007A6
:10054400FCD55A6802F00C02082A33D05A6822F00B
:1005540003025A6000220392039AB2F57A7F59D3B8
:100564001A683D490A401A6058683C4A02405A6079
:100574001A680A401A601A6822F480221A605A68BB
:1005840022F00F6222F470225A601A680A401A603C
:100594004FF41F029A601A6842F480321A604FF6D0
:1005A400FF721968890301D4013AFAD11A689203D7
:1005B40033D4FEE700220092009A4F2A24D95A68C5
:1005C4000192019A22F0F0020192019A42F0800213
:1005D4000192019A5A6000220092009A4F2A16D979
:1005E4005A680192019A22F0F0020192019A42F0B3
:1005F40090020192019A5A6000220092009A4F2AB6
:10060400A4D8009A0132F8E7009A0132D3E7009A9D
:100614000132E1E7039A01329DE75A685A605A6849
:100624005A605A685A605A680292029A22F0030287
:100634000292029A42F001020292029A5A605A68A5
:1006440002F00C02042AFAD100214FF0006004B039
:1006540000F066BA00100240FFFFF6FE0C00FFE84F
:1006640030B585B06C461F4B03F11005224618685F
:100674005968083303C2AB421446F7D11A4A536887
:10068400C3F38103012B28D0022B28D15368DC0348
:100694001DD55368154913F4003F154B08BF19467F
:1006A40053685068C3F38343000112D543F0100329
:1006B40001334B430F490B605268C2F303121032EB
:1006C4006A4412F8102CD3400B6005B030BD0A49BF
:1006D400E6E70F2BECD00233EBE7054BEAE7034BDD
:1006E400E8E700BF480C00080010024000127A003E
:1006F4000024F4000000002000093D0001228309C9
:1007040003F1804303F50433196800F01F008240AD
:100714000A431A6070470121830903F1804303F5FA
:1007240004331A6800F01F00814022EA01021A60B3
:100734007047FFF7E3BFFFF7EEBF830903F1804380
:1007440003F504331B6800F01F0023FA00F000F0E7
:1007540001007047182808B539D004D868B31028A8
:1007640012D0002008BDB0F5006F1AD0B0F5106F9C
:10077400F7D11B4A40F60110FFF7DFFF08B9013A31
:10078400F8D140F6011008E04FF6FF721120FFF790
:10079400D4FF08B9013AF9D11120BDE80840FFF7A8
:1007A400CCBF6FF07C4240F60100FFF7C6FF08B9EA
:1007B400013AF8D140F60100EFE74FF4A0620120BE
:1007C400FFF7BBFF08B9013AF9D10120E5E7044A74
:1007D4001920FFF7B2FF08B9013AF9D11920DCE773
:1007E400FFFF0F00FFF78ABF314BF0B504461F46E9
:1007F40089B004AD03F110062A4618685968083315
:1008040003C2B3421546F7D16B4638697168294A69
:1008140003C303C35368C3F38103012B2DD0022BFD
:100824002DD15368DD0310D55368234913F4003FD9
:10083400224B08BF194653685068C3F38343000131
:1008440005D543F01003013304E01D49F3E70F2BF2
:10085400F9D0023301FB03F053685168C3F3031367
:1008640020336B4413F8103C526820FA03F3032C32
:1008740007D8DFE804F007090B161048ECE70E4828
:10088400EAE7002009B0F0BD1846FBE7C1F30221F6
:1008940001F120020DEB020111F8200C23FA00F003
:1008A400F0E7C2F3C22220326A4412F8180CF5E7CA
:1008B400580C00080010024000127A000024F400D2
:1008C40000093D002DE9F0414FF0010C00250F27F0
:1008D40001F00F06CC0648BF164323FA05F2D207EF
:1008E40010D5AA00046807FA02FE24EA0E0406FAE8
:1008F40002F2282942EA040228D10CFA05F41C4029
:10090400446102600135082DE7D100254FF00F0C3A
:100914004FF0010E05F1080223FA02F4E40710D5A2
:10092400AC0047680CFA04F827EA080706FA04F44E
:10093400282944EA070410D10EFA02F21A4042614F
:1009440044600135082DE5D1BDE8F081482901BF97
:100954000124AC401C400461D3E7482901BF0127AE
:1009640007FA02F21A400261EAE701617047416145
:10097400704700000028164A30B500F44015B4BF93
:10098400D3695368B5F5401F84B210D1556823F07C
:10099400706325F07065556019B1420D12019440E1
:1009A40023430B4A0028B4BFD361536030BDC20255
:1009B4004DBF0322420D1201C0F303454CBFAA40B0
:1009C40004FA02F223EA020343F07063E4E700BF8F
:1009D4000000014008B51D4B984228D008D8A3F563
:1009E4000063984215D003F58063984218D008BD7F
:1009F400174B984222D003F568439842F7D140F24E
:100A04000E30FFF796FE40F20E30BDE80840FFF7C7
:100A140092BE40F21140FFF78CFE40F21140F4E721
:100A240040F21240FFF785FE40F21240EDE740F23B
:100A34001340FFF77EFE40F21340E6E740F2144015
:100A4400FFF777FE40F21440DFE700BF004C0040A0
:100A54000050004038B5114B044698420D461BD057
:100A640009D8A3F50063984216D003F58063984231
:100A740012D0002009E00A4B98420DD003F56843D8
:100A84009842F6D10320FFF7AFFE00EB5501B1FB0E
:100A9400F5F189B2A16038BD0220F4E7004C0040B2
:100AA40000500040C36823F4C063C360C3680B43B1
:100AB400C3607047C36823F48053C360C3680B43A7
:100AC400C3607047036923F44053036103690B4314
:100AD40003617047C36843F40053C3607047C3683D
:100AE40023F008030B43C3607047C36823F0040377
:100AF4000B43C3607047436901F4807123F480732E
:100B040043614369194341617047436901F40071CA
:100B140023F4007343614369194341617047000042
:100B240021F06041034B21F07F0101439960BFF341
:100B34004F8F704700ED00E04CF6CC42014B1A6039
:100B4400704700BF003000404AF6AA22014B1A60E9
:100B5400704700BF003000404CF6CC42124B1A6084
:100B640045F255521A6059601049DA68013902F0A9
:100B7400010212D0002AF8D1C0F30B000B4A0A4933
:100B84009860CB68013A03F002030AD0002BF8D135
:100B94004AF6AA2301200B607047002AECD00020FB
:100BA4007047002BFBD1F3E700300040FFFF0F003C
:100BB4000C480D490D4A884204D252F8043B40F8CF
:100BC400043BF8E70A480B490022884202D240F865
:100BD400042BFAE7FFF7ACFC00F010F8FFF75AFB20
:100BE40000F00AB80000002004000020700C000887
:100BF4000400002050100020FEE7000070B500261D
:100C04000C4D0D4B5B1B9C10A64209D10026FFF72F
:100C14008DFC0A4D0A4B5B1B9C10A64205D170BD8E
:100C240055F8043B98470136EEE755F8043B9847DE
:100C34000136F2E7700C0008700C0008700C000814
:100C4400700C000800000000000000000102030412
:100C54000607080900000000000000000102030468
:0C0C64000607080900000000010203045C
:040C70000024F40068
:0400000508000BB52F
:00000001FF
